{"contracts/DAO.sol":{"Dao":{"abi":[{"inputs":[],"stateMutability":"nonpayable","type":"constructor"},{"anonymous":false,"inputs":[{"indexed":false,"internalType":"uint256","name":"votesUp","type":"uint256"},{"indexed":false,"internalType":"uint256","name":"votesDown","type":"uint256"},{"indexed":false,"internalType":"address","name":"voter","type":"address"},{"indexed":false,"internalType":"uint256","name":"proposal","type":"uint256"},{"indexed":false,"internalType":"bool","name":"votedFor","type":"bool"}],"name":"newVote","type":"event"},{"anonymous":false,"inputs":[{"indexed":false,"internalType":"uint256","name":"id","type":"uint256"},{"indexed":false,"internalType":"bool","name":"passed","type":"bool"}],"name":"proposalCount","type":"event"},{"anonymous":false,"inputs":[{"indexed":false,"internalType":"uint256","name":"id","type":"uint256"},{"indexed":false,"internalType":"string","name":"description","type":"string"},{"indexed":false,"internalType":"uint256","name":"maxVotes","type":"uint256"},{"indexed":false,"internalType":"address","name":"proposer","type":"address"}],"name":"proposalCreated","type":"event"},{"inputs":[{"internalType":"uint256","name":"","type":"uint256"}],"name":"Proposals","outputs":[{"internalType":"uint256","name":"id","type":"uint256"},{"internalType":"bool","name":"exists","type":"bool"},{"internalType":"string","name":"description","type":"string"},{"internalType":"uint256","name":"deadline","type":"uint256"},{"internalType":"uint256","name":"votesUp","type":"uint256"},{"internalType":"uint256","name":"votesDown","type":"uint256"},{"internalType":"uint256","name":"maxVotes","type":"uint256"},{"internalType":"bool","name":"countConducted","type":"bool"},{"internalType":"bool","name":"passed","type":"bool"}],"stateMutability":"view","type":"function"},{"inputs":[{"internalType":"uint256","name":"_tokenId","type":"uint256"}],"name":"addTokenId","outputs":[],"stateMutability":"nonpayable","type":"function"},{"inputs":[{"internalType":"uint256","name":"_id","type":"uint256"}],"name":"countVotes","outputs":[],"stateMutability":"nonpayable","type":"function"},{"inputs":[{"internalType":"string","name":"_description","type":"string"},{"internalType":"address[]","name":"_canVote","type":"address[]"}],"name":"createProposal","outputs":[],"stateMutability":"nonpayable","type":"function"},{"inputs":[],"name":"owner","outputs":[{"internalType":"address","name":"","type":"address"}],"stateMutability":"view","type":"function"},{"inputs":[{"internalType":"uint256","name":"","type":"uint256"}],"name":"validTokens","outputs":[{"internalType":"uint256","name":"","type":"uint256"}],"stateMutability":"view","type":"function"},{"inputs":[{"internalType":"uint256","name":"_id","type":"uint256"},{"internalType":"bool","name":"_vote","type":"bool"}],"name":"voteOnProposal","outputs":[],"stateMutability":"nonpayable","type":"function"}],"evm":{"bytecode":{"linkReferences":{},"object":"60806040523480156200001157600080fd5b50336000806101000a81548173ffffffffffffffffffffffffffffffffffffffff021916908373ffffffffffffffffffffffffffffffffffffffff16021790555060018081905550732953399124f0cbb46d2cbacd8a89cf0599974963600360006101000a81548173ffffffffffffffffffffffffffffffffffffffff021916908373ffffffffffffffffffffffffffffffffffffffff16021790555060405180602001604052807fdc0c58978cfb72aac7cda1c82265240b8095d6270000000000000100000000018152506002906001620000ef929190620000f6565b5062000167565b82805482825590600052602060002090810192821562000135579160200282015b828111156200013457825182559160200191906001019062000117565b5b50905062000144919062000148565b5090565b5b808211156200016357600081600090555060010162000149565b5090565b611b1680620001776000396000f3fe608060405234801561001057600080fd5b506004361061007d5760003560e01c8063be8bb7ba1161005b578063be8bb7ba146100d8578063d1dbe7d8146100f4578063e9d3d16a1461012c578063fd0d101f1461015c5761007d565b80631614665c146100825780631840f0ca1461009e5780638da5cb5b146100ba575b600080fd5b61009c60048036038101906100979190610cca565b610178565b005b6100b860048036038101906100b39190610d0a565b61041b565b005b6100c261069c565b6040516100cf9190610d78565b60405180910390f35b6100f260048036038101906100ed9190610fcd565b6106c0565b005b61010e60048036038101906101099190610d0a565b6107f0565b604051610123999897969594939291906110e2565b60405180910390f35b61014660048036038101906101419190610d0a565b6108ed565b6040516101539190611176565b60405180910390f35b61017660048036038101906101719190610d0a565b610911565b005b6004600083815260200190815260200160002060010160009054906101000a900460ff166101db576040517f08c379a00000000000000000000000000000000000000000000000000000000081526004016101d2906111dd565b60405180910390fd5b6101e582336109cb565b610224576040517f08c379a000000000000000000000000000000000000000000000000000000000815260040161021b9061126f565b60405180910390fd5b6004600083815260200190815260200160002060080160003373ffffffffffffffffffffffffffffffffffffffff1673ffffffffffffffffffffffffffffffffffffffff16815260200190815260200160002060009054906101000a900460ff16156102c5576040517f08c379a00000000000000000000000000000000000000000000000000000000081526004016102bc90611301565b60405180910390fd5b600460008381526020019081526020016000206003015443111561031e576040517f08c379a000000000000000000000000000000000000000000000000000000000815260040161031590611393565b60405180910390fd5b6000600460008481526020019081526020016000209050811561035a57806004016000815480929190610350906113e2565b9190505550610375565b80600501600081548092919061036f906113e2565b91905055505b60018160080160003373ffffffffffffffffffffffffffffffffffffffff1673ffffffffffffffffffffffffffffffffffffffff16815260200190815260200160002060006101000a81548160ff0219169083151502179055507f97a3ed91f0b116dc155f238ac92aa5b825720a7bb096f53156e05d9c8ab6a30a8160040154826005015433868660405161040e95949392919061142a565b60405180910390a1505050565b60008054906101000a900473ffffffffffffffffffffffffffffffffffffffff1673ffffffffffffffffffffffffffffffffffffffff163373ffffffffffffffffffffffffffffffffffffffff16146104a9576040517f08c379a00000000000000000000000000000000000000000000000000000000081526004016104a0906114c9565b60405180910390fd5b6004600082815260200190815260200160002060010160009054906101000a900460ff1661050c576040517f08c379a0000000000000000000000000000000000000000000000000000000008152600401610503906111dd565b60405180910390fd5b60046000828152602001908152602001600020600301544311610564576040517f08c379a000000000000000000000000000000000000000000000000000000000815260040161055b90611535565b60405180910390fd5b6004600082815260200190815260200160002060090160009054906101000a900460ff16156105c8576040517f08c379a00000000000000000000000000000000000000000000000000000000081526004016105bf906115a1565b60405180910390fd5b60006004600083815260200190815260200160002090506004600083815260200190815260200160002060040154600460008481526020019081526020016000206005015410156106315760018160090160016101000a81548160ff0219169083151502179055505b60018160090160006101000a81548160ff0219169083151502179055507f4556fcf667ee704924eea359363d28f06708b744ad113340982b07ef9919fb91828260090160019054906101000a900460ff166040516106909291906115c1565b60405180910390a15050565b60008054906101000a900473ffffffffffffffffffffffffffffffffffffffff1681565b6106c933610aa2565b610708576040517f08c379a00000000000000000000000000000000000000000000000000000000081526004016106ff9061165c565b60405180910390fd5b60006004600060015481526020019081526020016000209050600154816000018190555060018160010160006101000a81548160ff0219169083151502179055508281600201908161075a9190611888565b50606443610768919061195a565b816003018190555081816006019080519060200190610788929190610ba1565b50815181600701819055507f3ec21697eb8018b62928e5f290d2bccf3af51e8b6cdf71fceab712977647bba9600154848451336040516107cb949392919061198e565b60405180910390a1600160008154809291906107e6906113e2565b9190505550505050565b60046020528060005260406000206000915090508060000154908060010160009054906101000a900460ff169080600201805461082c906116ab565b80601f0160208091040260200160405190810160405280929190818152602001828054610858906116ab565b80156108a55780601f1061087a576101008083540402835291602001916108a5565b820191906000526020600020905b81548152906001019060200180831161088857829003601f168201915b5050505050908060030154908060040154908060050154908060070154908060090160009054906101000a900460ff16908060090160019054906101000a900460ff16905089565b600281815481106108fd57600080fd5b906000526020600020016000915090505481565b60008054906101000a900473ffffffffffffffffffffffffffffffffffffffff1673ffffffffffffffffffffffffffffffffffffffff163373ffffffffffffffffffffffffffffffffffffffff161461099f576040517f08c379a000000000000000000000000000000000000000000000000000000000815260040161099690611a26565b60405180910390fd5b600281908060018154018082558091505060019003906000526020600020016000909190919091505550565b600080600090505b6004600085815260200190815260200160002060060180549050811015610a96578273ffffffffffffffffffffffffffffffffffffffff16600460008681526020019081526020016000206006018281548110610a3357610a32611a46565b5b9060005260206000200160009054906101000a900473ffffffffffffffffffffffffffffffffffffffff1673ffffffffffffffffffffffffffffffffffffffff1603610a83576001915050610a9c565b8080610a8e906113e2565b9150506109d3565b50600090505b92915050565b600080600090505b600280549050811015610b96576001600360009054906101000a900473ffffffffffffffffffffffffffffffffffffffff1673ffffffffffffffffffffffffffffffffffffffff1662fdd58e8560028581548110610b0b57610b0a611a46565b5b90600052602060002001546040518363ffffffff1660e01b8152600401610b33929190611a75565b602060405180830381865afa158015610b50573d6000803e3d6000fd5b505050506040513d601f19601f82011682018060405250810190610b749190611ab3565b10610b83576001915050610b9c565b8080610b8e906113e2565b915050610aaa565b50600090505b919050565b828054828255906000526020600020908101928215610c1a579160200282015b82811115610c195782518260006101000a81548173ffffffffffffffffffffffffffffffffffffffff021916908373ffffffffffffffffffffffffffffffffffffffff16021790555091602001919060010190610bc1565b5b509050610c279190610c2b565b5090565b5b80821115610c44576000816000905550600101610c2c565b5090565b6000604051905090565b600080fd5b600080fd5b6000819050919050565b610c6f81610c5c565b8114610c7a57600080fd5b50565b600081359050610c8c81610c66565b92915050565b60008115159050919050565b610ca781610c92565b8114610cb257600080fd5b50565b600081359050610cc481610c9e565b92915050565b60008060408385031215610ce157610ce0610c52565b5b6000610cef85828601610c7d565b9250506020610d0085828601610cb5565b9150509250929050565b600060208284031215610d2057610d1f610c52565b5b6000610d2e84828501610c7d565b91505092915050565b600073ffffffffffffffffffffffffffffffffffffffff82169050919050565b6000610d6282610d37565b9050919050565b610d7281610d57565b82525050565b6000602082019050610d8d6000830184610d69565b92915050565b600080fd5b600080fd5b6000601f19601f8301169050919050565b7f4e487b7100000000000000000000000000000000000000000000000000000000600052604160045260246000fd5b610de682610d9d565b810181811067ffffffffffffffff82111715610e0557610e04610dae565b5b80604052505050565b6000610e18610c48565b9050610e248282610ddd565b919050565b600067ffffffffffffffff821115610e4457610e43610dae565b5b610e4d82610d9d565b9050602081019050919050565b82818337600083830152505050565b6000610e7c610e7784610e29565b610e0e565b905082815260208101848484011115610e9857610e97610d98565b5b610ea3848285610e5a565b509392505050565b600082601f830112610ec057610ebf610d93565b5b8135610ed0848260208601610e69565b91505092915050565b600067ffffffffffffffff821115610ef457610ef3610dae565b5b602082029050602081019050919050565b600080fd5b610f1381610d57565b8114610f1e57600080fd5b50565b600081359050610f3081610f0a565b92915050565b6000610f49610f4484610ed9565b610e0e565b90508083825260208201905060208402830185811115610f6c57610f6b610f05565b5b835b81811015610f955780610f818882610f21565b845260208401935050602081019050610f6e565b5050509392505050565b600082601f830112610fb457610fb3610d93565b5b8135610fc4848260208601610f36565b91505092915050565b60008060408385031215610fe457610fe3610c52565b5b600083013567ffffffffffffffff81111561100257611001610c57565b5b61100e85828601610eab565b925050602083013567ffffffffffffffff81111561102f5761102e610c57565b5b61103b85828601610f9f565b9150509250929050565b61104e81610c5c565b82525050565b61105d81610c92565b82525050565b600081519050919050565b600082825260208201905092915050565b60005b8381101561109d578082015181840152602081019050611082565b60008484015250505050565b60006110b482611063565b6110be818561106e565b93506110ce81856020860161107f565b6110d781610d9d565b840191505092915050565b6000610120820190506110f8600083018c611045565b611105602083018b611054565b8181036040830152611117818a6110a9565b90506111266060830189611045565b6111336080830188611045565b61114060a0830187611045565b61114d60c0830186611045565b61115a60e0830185611054565b611168610100830184611054565b9a9950505050505050505050565b600060208201905061118b6000830184611045565b92915050565b7f546869732050726f706f73616c20646f6573206e6f7420657869737400000000600082015250565b60006111c7601c8361106e565b91506111d282611191565b602082019050919050565b600060208201905081810360008301526111f6816111ba565b9050919050565b7f596f752063616e206e6f7420766f7465206f6e20746869732050726f706f736160008201527f6c00000000000000000000000000000000000000000000000000000000000000602082015250565b600061125960218361106e565b9150611264826111fd565b604082019050919050565b600060208201905081810360008301526112888161124c565b9050919050565b7f596f75206861766520616c726561647920766f746564206f6e2074686973205060008201527f726f706f73616c00000000000000000000000000000000000000000000000000602082015250565b60006112eb60278361106e565b91506112f68261128f565b604082019050919050565b6000602082019050818103600083015261131a816112de565b9050919050565b7f54686520646561646c696e65206861732070617373656420666f72207468697360008201527f2050726f706f73616c0000000000000000000000000000000000000000000000602082015250565b600061137d60298361106e565b915061138882611321565b604082019050919050565b600060208201905081810360008301526113ac81611370565b9050919050565b7f4e487b7100000000000000000000000000000000000000000000000000000000600052601160045260246000fd5b60006113ed82610c5c565b91507fffffffffffffffffffffffffffffffffffffffffffffffffffffffffffffffff820361141f5761141e6113b3565b5b600182019050919050565b600060a08201905061143f6000830188611045565b61144c6020830187611045565b6114596040830186610d69565b6114666060830185611045565b6114736080830184611054565b9695505050505050565b7f4f6e6c79204f776e65722043616e20436f756e7420566f746573000000000000600082015250565b60006114b3601a8361106e565b91506114be8261147d565b602082019050919050565b600060208201905081810360008301526114e2816114a6565b9050919050565b7f566f74696e6720686173206e6f7420636f6e636c756465640000000000000000600082015250565b600061151f60188361106e565b915061152a826114e9565b602082019050919050565b6000602082019050818103600083015261154e81611512565b9050919050565b7f436f756e7420616c726561647920636f6e647563746564000000000000000000600082015250565b600061158b60178361106e565b915061159682611555565b602082019050919050565b600060208201905081810360008301526115ba8161157e565b9050919050565b60006040820190506115d66000830185611045565b6115e36020830184611054565b9392505050565b7f4f6e6c79204e465420686f6c646572732063616e2070757420666f727468205060008201527f726f706f73616c73000000000000000000000000000000000000000000000000602082015250565b600061164660288361106e565b9150611651826115ea565b604082019050919050565b6000602082019050818103600083015261167581611639565b9050919050565b7f4e487b7100000000000000000000000000000000000000000000000000000000600052602260045260246000fd5b600060028204905060018216806116c357607f821691505b6020821081036116d6576116d561167c565b5b50919050565b60008190508160005260206000209050919050565b60006020601f8301049050919050565b600082821b905092915050565b60006008830261173e7fffffffffffffffffffffffffffffffffffffffffffffffffffffffffffffffff82611701565b6117488683611701565b95508019841693508086168417925050509392505050565b6000819050919050565b600061178561178061177b84610c5c565b611760565b610c5c565b9050919050565b6000819050919050565b61179f8361176a565b6117b36117ab8261178c565b84845461170e565b825550505050565b600090565b6117c86117bb565b6117d3818484611796565b505050565b5b818110156117f7576117ec6000826117c0565b6001810190506117d9565b5050565b601f82111561183c5761180d816116dc565b611816846116f1565b81016020851015611825578190505b611839611831856116f1565b8301826117d8565b50505b505050565b600082821c905092915050565b600061185f60001984600802611841565b1980831691505092915050565b6000611878838361184e565b9150826002028217905092915050565b61189182611063565b67ffffffffffffffff8111156118aa576118a9610dae565b5b6118b482546116ab565b6118bf8282856117fb565b600060209050601f8311600181146118f257600084156118e0578287015190505b6118ea858261186c565b865550611952565b601f198416611900866116dc565b60005b8281101561192857848901518255600182019150602085019450602081019050611903565b868310156119455784890151611941601f89168261184e565b8355505b6001600288020188555050505b505050505050565b600061196582610c5c565b915061197083610c5c565b9250828201905080821115611988576119876113b3565b5b92915050565b60006080820190506119a36000830187611045565b81810360208301526119b581866110a9565b90506119c46040830185611045565b6119d16060830184610d69565b95945050505050565b7f4f6e6c79204f776e65722043616e2041646420546f6b656e7300000000000000600082015250565b6000611a1060198361106e565b9150611a1b826119da565b602082019050919050565b60006020820190508181036000830152611a3f81611a03565b9050919050565b7f4e487b7100000000000000000000000000000000000000000000000000000000600052603260045260246000fd5b6000604082019050611a8a6000830185610d69565b611a976020830184611045565b9392505050565b600081519050611aad81610c66565b92915050565b600060208284031215611ac957611ac8610c52565b5b6000611ad784828501611a9e565b9150509291505056fea2646970667358221220b05128b4afd1df5247d8e5a658cdc5702f39600cdc4d73b56c377e968f5dff0364736f6c63430008110033","opcodes":"PUSH1 0x80 PUSH1 0x40 MSTORE CALLVALUE DUP1 ISZERO PUSH3 0x11 JUMPI PUSH1 0x0 DUP1 REVERT JUMPDEST POP CALLER PUSH1 0x0 DUP1 PUSH2 0x100 EXP DUP2 SLOAD DUP2 PUSH20 0xFFFFFFFFFFFFFFFFFFFFFFFFFFFFFFFFFFFFFFFF MUL NOT AND SWAP1 DUP4 PUSH20 0xFFFFFFFFFFFFFFFFFFFFFFFFFFFFFFFFFFFFFFFF AND MUL OR SWAP1 SSTORE POP PUSH1 0x1 DUP1 DUP2 SWAP1 SSTORE POP PUSH20 0x2953399124F0CBB46D2CBACD8A89CF0599974963 PUSH1 0x3 PUSH1 0x0 PUSH2 0x100 EXP DUP2 SLOAD DUP2 PUSH20 0xFFFFFFFFFFFFFFFFFFFFFFFFFFFFFFFFFFFFFFFF MUL NOT AND SWAP1 DUP4 PUSH20 0xFFFFFFFFFFFFFFFFFFFFFFFFFFFFFFFFFFFFFFFF AND MUL OR SWAP1 SSTORE POP PUSH1 0x40 MLOAD DUP1 PUSH1 0x20 ADD PUSH1 0x40 MSTORE DUP1 PUSH32 0xDC0C58978CFB72AAC7CDA1C82265240B8095D627000000000000010000000001 DUP2 MSTORE POP PUSH1 0x2 SWAP1 PUSH1 0x1 PUSH3 0xEF SWAP3 SWAP2 SWAP1 PUSH3 0xF6 JUMP JUMPDEST POP PUSH3 0x167 JUMP JUMPDEST DUP3 DUP1 SLOAD DUP3 DUP3 SSTORE SWAP1 PUSH1 0x0 MSTORE PUSH1 0x20 PUSH1 0x0 KECCAK256 SWAP1 DUP2 ADD SWAP3 DUP3 ISZERO PUSH3 0x135 JUMPI SWAP2 PUSH1 0x20 MUL DUP3 ADD JUMPDEST DUP3 DUP2 GT ISZERO PUSH3 0x134 JUMPI DUP3 MLOAD DUP3 SSTORE SWAP2 PUSH1 0x20 ADD SWAP2 SWAP1 PUSH1 0x1 ADD SWAP1 PUSH3 0x117 JUMP JUMPDEST JUMPDEST POP SWAP1 POP PUSH3 0x144 SWAP2 SWAP1 PUSH3 0x148 JUMP JUMPDEST POP SWAP1 JUMP JUMPDEST JUMPDEST DUP1 DUP3 GT ISZERO PUSH3 0x163 JUMPI PUSH1 0x0 DUP2 PUSH1 0x0 SWAP1 SSTORE POP PUSH1 0x1 ADD PUSH3 0x149 JUMP JUMPDEST POP SWAP1 JUMP JUMPDEST PUSH2 0x1B16 DUP1 PUSH3 0x177 PUSH1 0x0 CODECOPY PUSH1 0x0 RETURN INVALID PUSH1 0x80 PUSH1 0x40 MSTORE CALLVALUE DUP1 ISZERO PUSH2 0x10 JUMPI PUSH1 0x0 DUP1 REVERT JUMPDEST POP PUSH1 0x4 CALLDATASIZE LT PUSH2 0x7D JUMPI PUSH1 0x0 CALLDATALOAD PUSH1 0xE0 SHR DUP1 PUSH4 0xBE8BB7BA GT PUSH2 0x5B JUMPI DUP1 PUSH4 0xBE8BB7BA EQ PUSH2 0xD8 JUMPI DUP1 PUSH4 0xD1DBE7D8 EQ PUSH2 0xF4 JUMPI DUP1 PUSH4 0xE9D3D16A EQ PUSH2 0x12C JUMPI DUP1 PUSH4 0xFD0D101F EQ PUSH2 0x15C JUMPI PUSH2 0x7D JUMP JUMPDEST DUP1 PUSH4 0x1614665C EQ PUSH2 0x82 JUMPI DUP1 PUSH4 0x1840F0CA EQ PUSH2 0x9E JUMPI DUP1 PUSH4 0x8DA5CB5B EQ PUSH2 0xBA JUMPI JUMPDEST PUSH1 0x0 DUP1 REVERT JUMPDEST PUSH2 0x9C PUSH1 0x4 DUP1 CALLDATASIZE SUB DUP2 ADD SWAP1 PUSH2 0x97 SWAP2 SWAP1 PUSH2 0xCCA JUMP JUMPDEST PUSH2 0x178 JUMP JUMPDEST STOP JUMPDEST PUSH2 0xB8 PUSH1 0x4 DUP1 CALLDATASIZE SUB DUP2 ADD SWAP1 PUSH2 0xB3 SWAP2 SWAP1 PUSH2 0xD0A JUMP JUMPDEST PUSH2 0x41B JUMP JUMPDEST STOP JUMPDEST PUSH2 0xC2 PUSH2 0x69C JUMP JUMPDEST PUSH1 0x40 MLOAD PUSH2 0xCF SWAP2 SWAP1 PUSH2 0xD78 JUMP JUMPDEST PUSH1 0x40 MLOAD DUP1 SWAP2 SUB SWAP1 RETURN JUMPDEST PUSH2 0xF2 PUSH1 0x4 DUP1 CALLDATASIZE SUB DUP2 ADD SWAP1 PUSH2 0xED SWAP2 SWAP1 PUSH2 0xFCD JUMP JUMPDEST PUSH2 0x6C0 JUMP JUMPDEST STOP JUMPDEST PUSH2 0x10E PUSH1 0x4 DUP1 CALLDATASIZE SUB DUP2 ADD SWAP1 PUSH2 0x109 SWAP2 SWAP1 PUSH2 0xD0A JUMP JUMPDEST PUSH2 0x7F0 JUMP JUMPDEST PUSH1 0x40 MLOAD PUSH2 0x123 SWAP10 SWAP9 SWAP8 SWAP7 SWAP6 SWAP5 SWAP4 SWAP3 SWAP2 SWAP1 PUSH2 0x10E2 JUMP JUMPDEST PUSH1 0x40 MLOAD DUP1 SWAP2 SUB SWAP1 RETURN JUMPDEST PUSH2 0x146 PUSH1 0x4 DUP1 CALLDATASIZE SUB DUP2 ADD SWAP1 PUSH2 0x141 SWAP2 SWAP1 PUSH2 0xD0A JUMP JUMPDEST PUSH2 0x8ED JUMP JUMPDEST PUSH1 0x40 MLOAD PUSH2 0x153 SWAP2 SWAP1 PUSH2 0x1176 JUMP JUMPDEST PUSH1 0x40 MLOAD DUP1 SWAP2 SUB SWAP1 RETURN JUMPDEST PUSH2 0x176 PUSH1 0x4 DUP1 CALLDATASIZE SUB DUP2 ADD SWAP1 PUSH2 0x171 SWAP2 SWAP1 PUSH2 0xD0A JUMP JUMPDEST PUSH2 0x911 JUMP JUMPDEST STOP JUMPDEST PUSH1 0x4 PUSH1 0x0 DUP4 DUP2 MSTORE PUSH1 0x20 ADD SWAP1 DUP2 MSTORE PUSH1 0x20 ADD PUSH1 0x0 KECCAK256 PUSH1 0x1 ADD PUSH1 0x0 SWAP1 SLOAD SWAP1 PUSH2 0x100 EXP SWAP1 DIV PUSH1 0xFF AND PUSH2 0x1DB JUMPI PUSH1 0x40 MLOAD PUSH32 0x8C379A000000000000000000000000000000000000000000000000000000000 DUP2 MSTORE PUSH1 0x4 ADD PUSH2 0x1D2 SWAP1 PUSH2 0x11DD JUMP JUMPDEST PUSH1 0x40 MLOAD DUP1 SWAP2 SUB SWAP1 REVERT JUMPDEST PUSH2 0x1E5 DUP3 CALLER PUSH2 0x9CB JUMP JUMPDEST PUSH2 0x224 JUMPI PUSH1 0x40 MLOAD PUSH32 0x8C379A000000000000000000000000000000000000000000000000000000000 DUP2 MSTORE PUSH1 0x4 ADD PUSH2 0x21B SWAP1 PUSH2 0x126F JUMP JUMPDEST PUSH1 0x40 MLOAD DUP1 SWAP2 SUB SWAP1 REVERT JUMPDEST PUSH1 0x4 PUSH1 0x0 DUP4 DUP2 MSTORE PUSH1 0x20 ADD SWAP1 DUP2 MSTORE PUSH1 0x20 ADD PUSH1 0x0 KECCAK256 PUSH1 0x8 ADD PUSH1 0x0 CALLER PUSH20 0xFFFFFFFFFFFFFFFFFFFFFFFFFFFFFFFFFFFFFFFF AND PUSH20 0xFFFFFFFFFFFFFFFFFFFFFFFFFFFFFFFFFFFFFFFF AND DUP2 MSTORE PUSH1 0x20 ADD SWAP1 DUP2 MSTORE PUSH1 0x20 ADD PUSH1 0x0 KECCAK256 PUSH1 0x0 SWAP1 SLOAD SWAP1 PUSH2 0x100 EXP SWAP1 DIV PUSH1 0xFF AND ISZERO PUSH2 0x2C5 JUMPI PUSH1 0x40 MLOAD PUSH32 0x8C379A000000000000000000000000000000000000000000000000000000000 DUP2 MSTORE PUSH1 0x4 ADD PUSH2 0x2BC SWAP1 PUSH2 0x1301 JUMP JUMPDEST PUSH1 0x40 MLOAD DUP1 SWAP2 SUB SWAP1 REVERT JUMPDEST PUSH1 0x4 PUSH1 0x0 DUP4 DUP2 MSTORE PUSH1 0x20 ADD SWAP1 DUP2 MSTORE PUSH1 0x20 ADD PUSH1 0x0 KECCAK256 PUSH1 0x3 ADD SLOAD NUMBER GT ISZERO PUSH2 0x31E JUMPI PUSH1 0x40 MLOAD PUSH32 0x8C379A000000000000000000000000000000000000000000000000000000000 DUP2 MSTORE PUSH1 0x4 ADD PUSH2 0x315 SWAP1 PUSH2 0x1393 JUMP JUMPDEST PUSH1 0x40 MLOAD DUP1 SWAP2 SUB SWAP1 REVERT JUMPDEST PUSH1 0x0 PUSH1 0x4 PUSH1 0x0 DUP5 DUP2 MSTORE PUSH1 0x20 ADD SWAP1 DUP2 MSTORE PUSH1 0x20 ADD PUSH1 0x0 KECCAK256 SWAP1 POP DUP2 ISZERO PUSH2 0x35A JUMPI DUP1 PUSH1 0x4 ADD PUSH1 0x0 DUP2 SLOAD DUP1 SWAP3 SWAP2 SWAP1 PUSH2 0x350 SWAP1 PUSH2 0x13E2 JUMP JUMPDEST SWAP2 SWAP1 POP SSTORE POP PUSH2 0x375 JUMP JUMPDEST DUP1 PUSH1 0x5 ADD PUSH1 0x0 DUP2 SLOAD DUP1 SWAP3 SWAP2 SWAP1 PUSH2 0x36F SWAP1 PUSH2 0x13E2 JUMP JUMPDEST SWAP2 SWAP1 POP SSTORE POP JUMPDEST PUSH1 0x1 DUP2 PUSH1 0x8 ADD PUSH1 0x0 CALLER PUSH20 0xFFFFFFFFFFFFFFFFFFFFFFFFFFFFFFFFFFFFFFFF AND PUSH20 0xFFFFFFFFFFFFFFFFFFFFFFFFFFFFFFFFFFFFFFFF AND DUP2 MSTORE PUSH1 0x20 ADD SWAP1 DUP2 MSTORE PUSH1 0x20 ADD PUSH1 0x0 KECCAK256 PUSH1 0x0 PUSH2 0x100 EXP DUP2 SLOAD DUP2 PUSH1 0xFF MUL NOT AND SWAP1 DUP4 ISZERO ISZERO MUL OR SWAP1 SSTORE POP PUSH32 0x97A3ED91F0B116DC155F238AC92AA5B825720A7BB096F53156E05D9C8AB6A30A DUP2 PUSH1 0x4 ADD SLOAD DUP3 PUSH1 0x5 ADD SLOAD CALLER DUP7 DUP7 PUSH1 0x40 MLOAD PUSH2 0x40E SWAP6 SWAP5 SWAP4 SWAP3 SWAP2 SWAP1 PUSH2 0x142A JUMP JUMPDEST PUSH1 0x40 MLOAD DUP1 SWAP2 SUB SWAP1 LOG1 POP POP POP JUMP JUMPDEST PUSH1 0x0 DUP1 SLOAD SWAP1 PUSH2 0x100 EXP SWAP1 DIV PUSH20 0xFFFFFFFFFFFFFFFFFFFFFFFFFFFFFFFFFFFFFFFF AND PUSH20 0xFFFFFFFFFFFFFFFFFFFFFFFFFFFFFFFFFFFFFFFF AND CALLER PUSH20 0xFFFFFFFFFFFFFFFFFFFFFFFFFFFFFFFFFFFFFFFF AND EQ PUSH2 0x4A9 JUMPI PUSH1 0x40 MLOAD PUSH32 0x8C379A000000000000000000000000000000000000000000000000000000000 DUP2 MSTORE PUSH1 0x4 ADD PUSH2 0x4A0 SWAP1 PUSH2 0x14C9 JUMP JUMPDEST PUSH1 0x40 MLOAD DUP1 SWAP2 SUB SWAP1 REVERT JUMPDEST PUSH1 0x4 PUSH1 0x0 DUP3 DUP2 MSTORE PUSH1 0x20 ADD SWAP1 DUP2 MSTORE PUSH1 0x20 ADD PUSH1 0x0 KECCAK256 PUSH1 0x1 ADD PUSH1 0x0 SWAP1 SLOAD SWAP1 PUSH2 0x100 EXP SWAP1 DIV PUSH1 0xFF AND PUSH2 0x50C JUMPI PUSH1 0x40 MLOAD PUSH32 0x8C379A000000000000000000000000000000000000000000000000000000000 DUP2 MSTORE PUSH1 0x4 ADD PUSH2 0x503 SWAP1 PUSH2 0x11DD JUMP JUMPDEST PUSH1 0x40 MLOAD DUP1 SWAP2 SUB SWAP1 REVERT JUMPDEST PUSH1 0x4 PUSH1 0x0 DUP3 DUP2 MSTORE PUSH1 0x20 ADD SWAP1 DUP2 MSTORE PUSH1 0x20 ADD PUSH1 0x0 KECCAK256 PUSH1 0x3 ADD SLOAD NUMBER GT PUSH2 0x564 JUMPI PUSH1 0x40 MLOAD PUSH32 0x8C379A000000000000000000000000000000000000000000000000000000000 DUP2 MSTORE PUSH1 0x4 ADD PUSH2 0x55B SWAP1 PUSH2 0x1535 JUMP JUMPDEST PUSH1 0x40 MLOAD DUP1 SWAP2 SUB SWAP1 REVERT JUMPDEST PUSH1 0x4 PUSH1 0x0 DUP3 DUP2 MSTORE PUSH1 0x20 ADD SWAP1 DUP2 MSTORE PUSH1 0x20 ADD PUSH1 0x0 KECCAK256 PUSH1 0x9 ADD PUSH1 0x0 SWAP1 SLOAD SWAP1 PUSH2 0x100 EXP SWAP1 DIV PUSH1 0xFF AND ISZERO PUSH2 0x5C8 JUMPI PUSH1 0x40 MLOAD PUSH32 0x8C379A000000000000000000000000000000000000000000000000000000000 DUP2 MSTORE PUSH1 0x4 ADD PUSH2 0x5BF SWAP1 PUSH2 0x15A1 JUMP JUMPDEST PUSH1 0x40 MLOAD DUP1 SWAP2 SUB SWAP1 REVERT JUMPDEST PUSH1 0x0 PUSH1 0x4 PUSH1 0x0 DUP4 DUP2 MSTORE PUSH1 0x20 ADD SWAP1 DUP2 MSTORE PUSH1 0x20 ADD PUSH1 0x0 KECCAK256 SWAP1 POP PUSH1 0x4 PUSH1 0x0 DUP4 DUP2 MSTORE PUSH1 0x20 ADD SWAP1 DUP2 MSTORE PUSH1 0x20 ADD PUSH1 0x0 KECCAK256 PUSH1 0x4 ADD SLOAD PUSH1 0x4 PUSH1 0x0 DUP5 DUP2 MSTORE PUSH1 0x20 ADD SWAP1 DUP2 MSTORE PUSH1 0x20 ADD PUSH1 0x0 KECCAK256 PUSH1 0x5 ADD SLOAD LT ISZERO PUSH2 0x631 JUMPI PUSH1 0x1 DUP2 PUSH1 0x9 ADD PUSH1 0x1 PUSH2 0x100 EXP DUP2 SLOAD DUP2 PUSH1 0xFF MUL NOT AND SWAP1 DUP4 ISZERO ISZERO MUL OR SWAP1 SSTORE POP JUMPDEST PUSH1 0x1 DUP2 PUSH1 0x9 ADD PUSH1 0x0 PUSH2 0x100 EXP DUP2 SLOAD DUP2 PUSH1 0xFF MUL NOT AND SWAP1 DUP4 ISZERO ISZERO MUL OR SWAP1 SSTORE POP PUSH32 0x4556FCF667EE704924EEA359363D28F06708B744AD113340982B07EF9919FB91 DUP3 DUP3 PUSH1 0x9 ADD PUSH1 0x1 SWAP1 SLOAD SWAP1 PUSH2 0x100 EXP SWAP1 DIV PUSH1 0xFF AND PUSH1 0x40 MLOAD PUSH2 0x690 SWAP3 SWAP2 SWAP1 PUSH2 0x15C1 JUMP JUMPDEST PUSH1 0x40 MLOAD DUP1 SWAP2 SUB SWAP1 LOG1 POP POP JUMP JUMPDEST PUSH1 0x0 DUP1 SLOAD SWAP1 PUSH2 0x100 EXP SWAP1 DIV PUSH20 0xFFFFFFFFFFFFFFFFFFFFFFFFFFFFFFFFFFFFFFFF AND DUP2 JUMP JUMPDEST PUSH2 0x6C9 CALLER PUSH2 0xAA2 JUMP JUMPDEST PUSH2 0x708 JUMPI PUSH1 0x40 MLOAD PUSH32 0x8C379A000000000000000000000000000000000000000000000000000000000 DUP2 MSTORE PUSH1 0x4 ADD PUSH2 0x6FF SWAP1 PUSH2 0x165C JUMP JUMPDEST PUSH1 0x40 MLOAD DUP1 SWAP2 SUB SWAP1 REVERT JUMPDEST PUSH1 0x0 PUSH1 0x4 PUSH1 0x0 PUSH1 0x1 SLOAD DUP2 MSTORE PUSH1 0x20 ADD SWAP1 DUP2 MSTORE PUSH1 0x20 ADD PUSH1 0x0 KECCAK256 SWAP1 POP PUSH1 0x1 SLOAD DUP2 PUSH1 0x0 ADD DUP2 SWAP1 SSTORE POP PUSH1 0x1 DUP2 PUSH1 0x1 ADD PUSH1 0x0 PUSH2 0x100 EXP DUP2 SLOAD DUP2 PUSH1 0xFF MUL NOT AND SWAP1 DUP4 ISZERO ISZERO MUL OR SWAP1 SSTORE POP DUP3 DUP2 PUSH1 0x2 ADD SWAP1 DUP2 PUSH2 0x75A SWAP2 SWAP1 PUSH2 0x1888 JUMP JUMPDEST POP PUSH1 0x64 NUMBER PUSH2 0x768 SWAP2 SWAP1 PUSH2 0x195A JUMP JUMPDEST DUP2 PUSH1 0x3 ADD DUP2 SWAP1 SSTORE POP DUP2 DUP2 PUSH1 0x6 ADD SWAP1 DUP1 MLOAD SWAP1 PUSH1 0x20 ADD SWAP1 PUSH2 0x788 SWAP3 SWAP2 SWAP1 PUSH2 0xBA1 JUMP JUMPDEST POP DUP2 MLOAD DUP2 PUSH1 0x7 ADD DUP2 SWAP1 SSTORE POP PUSH32 0x3EC21697EB8018B62928E5F290D2BCCF3AF51E8B6CDF71FCEAB712977647BBA9 PUSH1 0x1 SLOAD DUP5 DUP5 MLOAD CALLER PUSH1 0x40 MLOAD PUSH2 0x7CB SWAP5 SWAP4 SWAP3 SWAP2 SWAP1 PUSH2 0x198E JUMP JUMPDEST PUSH1 0x40 MLOAD DUP1 SWAP2 SUB SWAP1 LOG1 PUSH1 0x1 PUSH1 0x0 DUP2 SLOAD DUP1 SWAP3 SWAP2 SWAP1 PUSH2 0x7E6 SWAP1 PUSH2 0x13E2 JUMP JUMPDEST SWAP2 SWAP1 POP SSTORE POP POP POP POP JUMP JUMPDEST PUSH1 0x4 PUSH1 0x20 MSTORE DUP1 PUSH1 0x0 MSTORE PUSH1 0x40 PUSH1 0x0 KECCAK256 PUSH1 0x0 SWAP2 POP SWAP1 POP DUP1 PUSH1 0x0 ADD SLOAD SWAP1 DUP1 PUSH1 0x1 ADD PUSH1 0x0 SWAP1 SLOAD SWAP1 PUSH2 0x100 EXP SWAP1 DIV PUSH1 0xFF AND SWAP1 DUP1 PUSH1 0x2 ADD DUP1 SLOAD PUSH2 0x82C SWAP1 PUSH2 0x16AB JUMP JUMPDEST DUP1 PUSH1 0x1F ADD PUSH1 0x20 DUP1 SWAP2 DIV MUL PUSH1 0x20 ADD PUSH1 0x40 MLOAD SWAP1 DUP2 ADD PUSH1 0x40 MSTORE DUP1 SWAP3 SWAP2 SWAP1 DUP2 DUP2 MSTORE PUSH1 0x20 ADD DUP3 DUP1 SLOAD PUSH2 0x858 SWAP1 PUSH2 0x16AB JUMP JUMPDEST DUP1 ISZERO PUSH2 0x8A5 JUMPI DUP1 PUSH1 0x1F LT PUSH2 0x87A JUMPI PUSH2 0x100 DUP1 DUP4 SLOAD DIV MUL DUP4 MSTORE SWAP2 PUSH1 0x20 ADD SWAP2 PUSH2 0x8A5 JUMP JUMPDEST DUP3 ADD SWAP2 SWAP1 PUSH1 0x0 MSTORE PUSH1 0x20 PUSH1 0x0 KECCAK256 SWAP1 JUMPDEST DUP2 SLOAD DUP2 MSTORE SWAP1 PUSH1 0x1 ADD SWAP1 PUSH1 0x20 ADD DUP1 DUP4 GT PUSH2 0x888 JUMPI DUP3 SWAP1 SUB PUSH1 0x1F AND DUP3 ADD SWAP2 JUMPDEST POP POP POP POP POP SWAP1 DUP1 PUSH1 0x3 ADD SLOAD SWAP1 DUP1 PUSH1 0x4 ADD SLOAD SWAP1 DUP1 PUSH1 0x5 ADD SLOAD SWAP1 DUP1 PUSH1 0x7 ADD SLOAD SWAP1 DUP1 PUSH1 0x9 ADD PUSH1 0x0 SWAP1 SLOAD SWAP1 PUSH2 0x100 EXP SWAP1 DIV PUSH1 0xFF AND SWAP1 DUP1 PUSH1 0x9 ADD PUSH1 0x1 SWAP1 SLOAD SWAP1 PUSH2 0x100 EXP SWAP1 DIV PUSH1 0xFF AND SWAP1 POP DUP10 JUMP JUMPDEST PUSH1 0x2 DUP2 DUP2 SLOAD DUP2 LT PUSH2 0x8FD JUMPI PUSH1 0x0 DUP1 REVERT JUMPDEST SWAP1 PUSH1 0x0 MSTORE PUSH1 0x20 PUSH1 0x0 KECCAK256 ADD PUSH1 0x0 SWAP2 POP SWAP1 POP SLOAD DUP2 JUMP JUMPDEST PUSH1 0x0 DUP1 SLOAD SWAP1 PUSH2 0x100 EXP SWAP1 DIV PUSH20 0xFFFFFFFFFFFFFFFFFFFFFFFFFFFFFFFFFFFFFFFF AND PUSH20 0xFFFFFFFFFFFFFFFFFFFFFFFFFFFFFFFFFFFFFFFF AND CALLER PUSH20 0xFFFFFFFFFFFFFFFFFFFFFFFFFFFFFFFFFFFFFFFF AND EQ PUSH2 0x99F JUMPI PUSH1 0x40 MLOAD PUSH32 0x8C379A000000000000000000000000000000000000000000000000000000000 DUP2 MSTORE PUSH1 0x4 ADD PUSH2 0x996 SWAP1 PUSH2 0x1A26 JUMP JUMPDEST PUSH1 0x40 MLOAD DUP1 SWAP2 SUB SWAP1 REVERT JUMPDEST PUSH1 0x2 DUP2 SWAP1 DUP1 PUSH1 0x1 DUP2 SLOAD ADD DUP1 DUP3 SSTORE DUP1 SWAP2 POP POP PUSH1 0x1 SWAP1 SUB SWAP1 PUSH1 0x0 MSTORE PUSH1 0x20 PUSH1 0x0 KECCAK256 ADD PUSH1 0x0 SWAP1 SWAP2 SWAP1 SWAP2 SWAP1 SWAP2 POP SSTORE POP JUMP JUMPDEST PUSH1 0x0 DUP1 PUSH1 0x0 SWAP1 POP JUMPDEST PUSH1 0x4 PUSH1 0x0 DUP6 DUP2 MSTORE PUSH1 0x20 ADD SWAP1 DUP2 MSTORE PUSH1 0x20 ADD PUSH1 0x0 KECCAK256 PUSH1 0x6 ADD DUP1 SLOAD SWAP1 POP DUP2 LT ISZERO PUSH2 0xA96 JUMPI DUP3 PUSH20 0xFFFFFFFFFFFFFFFFFFFFFFFFFFFFFFFFFFFFFFFF AND PUSH1 0x4 PUSH1 0x0 DUP7 DUP2 MSTORE PUSH1 0x20 ADD SWAP1 DUP2 MSTORE PUSH1 0x20 ADD PUSH1 0x0 KECCAK256 PUSH1 0x6 ADD DUP3 DUP2 SLOAD DUP2 LT PUSH2 0xA33 JUMPI PUSH2 0xA32 PUSH2 0x1A46 JUMP JUMPDEST JUMPDEST SWAP1 PUSH1 0x0 MSTORE PUSH1 0x20 PUSH1 0x0 KECCAK256 ADD PUSH1 0x0 SWAP1 SLOAD SWAP1 PUSH2 0x100 EXP SWAP1 DIV PUSH20 0xFFFFFFFFFFFFFFFFFFFFFFFFFFFFFFFFFFFFFFFF AND PUSH20 0xFFFFFFFFFFFFFFFFFFFFFFFFFFFFFFFFFFFFFFFF AND SUB PUSH2 0xA83 JUMPI PUSH1 0x1 SWAP2 POP POP PUSH2 0xA9C JUMP JUMPDEST DUP1 DUP1 PUSH2 0xA8E SWAP1 PUSH2 0x13E2 JUMP JUMPDEST SWAP2 POP POP PUSH2 0x9D3 JUMP JUMPDEST POP PUSH1 0x0 SWAP1 POP JUMPDEST SWAP3 SWAP2 POP POP JUMP JUMPDEST PUSH1 0x0 DUP1 PUSH1 0x0 SWAP1 POP JUMPDEST PUSH1 0x2 DUP1 SLOAD SWAP1 POP DUP2 LT ISZERO PUSH2 0xB96 JUMPI PUSH1 0x1 PUSH1 0x3 PUSH1 0x0 SWAP1 SLOAD SWAP1 PUSH2 0x100 EXP SWAP1 DIV PUSH20 0xFFFFFFFFFFFFFFFFFFFFFFFFFFFFFFFFFFFFFFFF AND PUSH20 0xFFFFFFFFFFFFFFFFFFFFFFFFFFFFFFFFFFFFFFFF AND PUSH3 0xFDD58E DUP6 PUSH1 0x2 DUP6 DUP2 SLOAD DUP2 LT PUSH2 0xB0B JUMPI PUSH2 0xB0A PUSH2 0x1A46 JUMP JUMPDEST JUMPDEST SWAP1 PUSH1 0x0 MSTORE PUSH1 0x20 PUSH1 0x0 KECCAK256 ADD SLOAD PUSH1 0x40 MLOAD DUP4 PUSH4 0xFFFFFFFF AND PUSH1 0xE0 SHL DUP2 MSTORE PUSH1 0x4 ADD PUSH2 0xB33 SWAP3 SWAP2 SWAP1 PUSH2 0x1A75 JUMP JUMPDEST PUSH1 0x20 PUSH1 0x40 MLOAD DUP1 DUP4 SUB DUP2 DUP7 GAS STATICCALL ISZERO DUP1 ISZERO PUSH2 0xB50 JUMPI RETURNDATASIZE PUSH1 0x0 DUP1 RETURNDATACOPY RETURNDATASIZE PUSH1 0x0 REVERT JUMPDEST POP POP POP POP PUSH1 0x40 MLOAD RETURNDATASIZE PUSH1 0x1F NOT PUSH1 0x1F DUP3 ADD AND DUP3 ADD DUP1 PUSH1 0x40 MSTORE POP DUP2 ADD SWAP1 PUSH2 0xB74 SWAP2 SWAP1 PUSH2 0x1AB3 JUMP JUMPDEST LT PUSH2 0xB83 JUMPI PUSH1 0x1 SWAP2 POP POP PUSH2 0xB9C JUMP JUMPDEST DUP1 DUP1 PUSH2 0xB8E SWAP1 PUSH2 0x13E2 JUMP JUMPDEST SWAP2 POP POP PUSH2 0xAAA JUMP JUMPDEST POP PUSH1 0x0 SWAP1 POP JUMPDEST SWAP2 SWAP1 POP JUMP JUMPDEST DUP3 DUP1 SLOAD DUP3 DUP3 SSTORE SWAP1 PUSH1 0x0 MSTORE PUSH1 0x20 PUSH1 0x0 KECCAK256 SWAP1 DUP2 ADD SWAP3 DUP3 ISZERO PUSH2 0xC1A JUMPI SWAP2 PUSH1 0x20 MUL DUP3 ADD JUMPDEST DUP3 DUP2 GT ISZERO PUSH2 0xC19 JUMPI DUP3 MLOAD DUP3 PUSH1 0x0 PUSH2 0x100 EXP DUP2 SLOAD DUP2 PUSH20 0xFFFFFFFFFFFFFFFFFFFFFFFFFFFFFFFFFFFFFFFF MUL NOT AND SWAP1 DUP4 PUSH20 0xFFFFFFFFFFFFFFFFFFFFFFFFFFFFFFFFFFFFFFFF AND MUL OR SWAP1 SSTORE POP SWAP2 PUSH1 0x20 ADD SWAP2 SWAP1 PUSH1 0x1 ADD SWAP1 PUSH2 0xBC1 JUMP JUMPDEST JUMPDEST POP SWAP1 POP PUSH2 0xC27 SWAP2 SWAP1 PUSH2 0xC2B JUMP JUMPDEST POP SWAP1 JUMP JUMPDEST JUMPDEST DUP1 DUP3 GT ISZERO PUSH2 0xC44 JUMPI PUSH1 0x0 DUP2 PUSH1 0x0 SWAP1 SSTORE POP PUSH1 0x1 ADD PUSH2 0xC2C JUMP JUMPDEST POP SWAP1 JUMP JUMPDEST PUSH1 0x0 PUSH1 0x40 MLOAD SWAP1 POP SWAP1 JUMP JUMPDEST PUSH1 0x0 DUP1 REVERT JUMPDEST PUSH1 0x0 DUP1 REVERT JUMPDEST PUSH1 0x0 DUP2 SWAP1 POP SWAP2 SWAP1 POP JUMP JUMPDEST PUSH2 0xC6F DUP2 PUSH2 0xC5C JUMP JUMPDEST DUP2 EQ PUSH2 0xC7A JUMPI PUSH1 0x0 DUP1 REVERT JUMPDEST POP JUMP JUMPDEST PUSH1 0x0 DUP2 CALLDATALOAD SWAP1 POP PUSH2 0xC8C DUP2 PUSH2 0xC66 JUMP JUMPDEST SWAP3 SWAP2 POP POP JUMP JUMPDEST PUSH1 0x0 DUP2 ISZERO ISZERO SWAP1 POP SWAP2 SWAP1 POP JUMP JUMPDEST PUSH2 0xCA7 DUP2 PUSH2 0xC92 JUMP JUMPDEST DUP2 EQ PUSH2 0xCB2 JUMPI PUSH1 0x0 DUP1 REVERT JUMPDEST POP JUMP JUMPDEST PUSH1 0x0 DUP2 CALLDATALOAD SWAP1 POP PUSH2 0xCC4 DUP2 PUSH2 0xC9E JUMP JUMPDEST SWAP3 SWAP2 POP POP JUMP JUMPDEST PUSH1 0x0 DUP1 PUSH1 0x40 DUP4 DUP6 SUB SLT ISZERO PUSH2 0xCE1 JUMPI PUSH2 0xCE0 PUSH2 0xC52 JUMP JUMPDEST JUMPDEST PUSH1 0x0 PUSH2 0xCEF DUP6 DUP3 DUP7 ADD PUSH2 0xC7D JUMP JUMPDEST SWAP3 POP POP PUSH1 0x20 PUSH2 0xD00 DUP6 DUP3 DUP7 ADD PUSH2 0xCB5 JUMP JUMPDEST SWAP2 POP POP SWAP3 POP SWAP3 SWAP1 POP JUMP JUMPDEST PUSH1 0x0 PUSH1 0x20 DUP3 DUP5 SUB SLT ISZERO PUSH2 0xD20 JUMPI PUSH2 0xD1F PUSH2 0xC52 JUMP JUMPDEST JUMPDEST PUSH1 0x0 PUSH2 0xD2E DUP5 DUP3 DUP6 ADD PUSH2 0xC7D JUMP JUMPDEST SWAP2 POP POP SWAP3 SWAP2 POP POP JUMP JUMPDEST PUSH1 0x0 PUSH20 0xFFFFFFFFFFFFFFFFFFFFFFFFFFFFFFFFFFFFFFFF DUP3 AND SWAP1 POP SWAP2 SWAP1 POP JUMP JUMPDEST PUSH1 0x0 PUSH2 0xD62 DUP3 PUSH2 0xD37 JUMP JUMPDEST SWAP1 POP SWAP2 SWAP1 POP JUMP JUMPDEST PUSH2 0xD72 DUP2 PUSH2 0xD57 JUMP JUMPDEST DUP3 MSTORE POP POP JUMP JUMPDEST PUSH1 0x0 PUSH1 0x20 DUP3 ADD SWAP1 POP PUSH2 0xD8D PUSH1 0x0 DUP4 ADD DUP5 PUSH2 0xD69 JUMP JUMPDEST SWAP3 SWAP2 POP POP JUMP JUMPDEST PUSH1 0x0 DUP1 REVERT JUMPDEST PUSH1 0x0 DUP1 REVERT JUMPDEST PUSH1 0x0 PUSH1 0x1F NOT PUSH1 0x1F DUP4 ADD AND SWAP1 POP SWAP2 SWAP1 POP JUMP JUMPDEST PUSH32 0x4E487B7100000000000000000000000000000000000000000000000000000000 PUSH1 0x0 MSTORE PUSH1 0x41 PUSH1 0x4 MSTORE PUSH1 0x24 PUSH1 0x0 REVERT JUMPDEST PUSH2 0xDE6 DUP3 PUSH2 0xD9D JUMP JUMPDEST DUP2 ADD DUP2 DUP2 LT PUSH8 0xFFFFFFFFFFFFFFFF DUP3 GT OR ISZERO PUSH2 0xE05 JUMPI PUSH2 0xE04 PUSH2 0xDAE JUMP JUMPDEST JUMPDEST DUP1 PUSH1 0x40 MSTORE POP POP POP JUMP JUMPDEST PUSH1 0x0 PUSH2 0xE18 PUSH2 0xC48 JUMP JUMPDEST SWAP1 POP PUSH2 0xE24 DUP3 DUP3 PUSH2 0xDDD JUMP JUMPDEST SWAP2 SWAP1 POP JUMP JUMPDEST PUSH1 0x0 PUSH8 0xFFFFFFFFFFFFFFFF DUP3 GT ISZERO PUSH2 0xE44 JUMPI PUSH2 0xE43 PUSH2 0xDAE JUMP JUMPDEST JUMPDEST PUSH2 0xE4D DUP3 PUSH2 0xD9D JUMP JUMPDEST SWAP1 POP PUSH1 0x20 DUP2 ADD SWAP1 POP SWAP2 SWAP1 POP JUMP JUMPDEST DUP3 DUP2 DUP4 CALLDATACOPY PUSH1 0x0 DUP4 DUP4 ADD MSTORE POP POP POP JUMP JUMPDEST PUSH1 0x0 PUSH2 0xE7C PUSH2 0xE77 DUP5 PUSH2 0xE29 JUMP JUMPDEST PUSH2 0xE0E JUMP JUMPDEST SWAP1 POP DUP3 DUP2 MSTORE PUSH1 0x20 DUP2 ADD DUP5 DUP5 DUP5 ADD GT ISZERO PUSH2 0xE98 JUMPI PUSH2 0xE97 PUSH2 0xD98 JUMP JUMPDEST JUMPDEST PUSH2 0xEA3 DUP5 DUP3 DUP6 PUSH2 0xE5A JUMP JUMPDEST POP SWAP4 SWAP3 POP POP POP JUMP JUMPDEST PUSH1 0x0 DUP3 PUSH1 0x1F DUP4 ADD SLT PUSH2 0xEC0 JUMPI PUSH2 0xEBF PUSH2 0xD93 JUMP JUMPDEST JUMPDEST DUP2 CALLDATALOAD PUSH2 0xED0 DUP5 DUP3 PUSH1 0x20 DUP7 ADD PUSH2 0xE69 JUMP JUMPDEST SWAP2 POP POP SWAP3 SWAP2 POP POP JUMP JUMPDEST PUSH1 0x0 PUSH8 0xFFFFFFFFFFFFFFFF DUP3 GT ISZERO PUSH2 0xEF4 JUMPI PUSH2 0xEF3 PUSH2 0xDAE JUMP JUMPDEST JUMPDEST PUSH1 0x20 DUP3 MUL SWAP1 POP PUSH1 0x20 DUP2 ADD SWAP1 POP SWAP2 SWAP1 POP JUMP JUMPDEST PUSH1 0x0 DUP1 REVERT JUMPDEST PUSH2 0xF13 DUP2 PUSH2 0xD57 JUMP JUMPDEST DUP2 EQ PUSH2 0xF1E JUMPI PUSH1 0x0 DUP1 REVERT JUMPDEST POP JUMP JUMPDEST PUSH1 0x0 DUP2 CALLDATALOAD SWAP1 POP PUSH2 0xF30 DUP2 PUSH2 0xF0A JUMP JUMPDEST SWAP3 SWAP2 POP POP JUMP JUMPDEST PUSH1 0x0 PUSH2 0xF49 PUSH2 0xF44 DUP5 PUSH2 0xED9 JUMP JUMPDEST PUSH2 0xE0E JUMP JUMPDEST SWAP1 POP DUP1 DUP4 DUP3 MSTORE PUSH1 0x20 DUP3 ADD SWAP1 POP PUSH1 0x20 DUP5 MUL DUP4 ADD DUP6 DUP2 GT ISZERO PUSH2 0xF6C JUMPI PUSH2 0xF6B PUSH2 0xF05 JUMP JUMPDEST JUMPDEST DUP4 JUMPDEST DUP2 DUP2 LT ISZERO PUSH2 0xF95 JUMPI DUP1 PUSH2 0xF81 DUP9 DUP3 PUSH2 0xF21 JUMP JUMPDEST DUP5 MSTORE PUSH1 0x20 DUP5 ADD SWAP4 POP POP PUSH1 0x20 DUP2 ADD SWAP1 POP PUSH2 0xF6E JUMP JUMPDEST POP POP POP SWAP4 SWAP3 POP POP POP JUMP JUMPDEST PUSH1 0x0 DUP3 PUSH1 0x1F DUP4 ADD SLT PUSH2 0xFB4 JUMPI PUSH2 0xFB3 PUSH2 0xD93 JUMP JUMPDEST JUMPDEST DUP2 CALLDATALOAD PUSH2 0xFC4 DUP5 DUP3 PUSH1 0x20 DUP7 ADD PUSH2 0xF36 JUMP JUMPDEST SWAP2 POP POP SWAP3 SWAP2 POP POP JUMP JUMPDEST PUSH1 0x0 DUP1 PUSH1 0x40 DUP4 DUP6 SUB SLT ISZERO PUSH2 0xFE4 JUMPI PUSH2 0xFE3 PUSH2 0xC52 JUMP JUMPDEST JUMPDEST PUSH1 0x0 DUP4 ADD CALLDATALOAD PUSH8 0xFFFFFFFFFFFFFFFF DUP2 GT ISZERO PUSH2 0x1002 JUMPI PUSH2 0x1001 PUSH2 0xC57 JUMP JUMPDEST JUMPDEST PUSH2 0x100E DUP6 DUP3 DUP7 ADD PUSH2 0xEAB JUMP JUMPDEST SWAP3 POP POP PUSH1 0x20 DUP4 ADD CALLDATALOAD PUSH8 0xFFFFFFFFFFFFFFFF DUP2 GT ISZERO PUSH2 0x102F JUMPI PUSH2 0x102E PUSH2 0xC57 JUMP JUMPDEST JUMPDEST PUSH2 0x103B DUP6 DUP3 DUP7 ADD PUSH2 0xF9F JUMP JUMPDEST SWAP2 POP POP SWAP3 POP SWAP3 SWAP1 POP JUMP JUMPDEST PUSH2 0x104E DUP2 PUSH2 0xC5C JUMP JUMPDEST DUP3 MSTORE POP POP JUMP JUMPDEST PUSH2 0x105D DUP2 PUSH2 0xC92 JUMP JUMPDEST DUP3 MSTORE POP POP JUMP JUMPDEST PUSH1 0x0 DUP2 MLOAD SWAP1 POP SWAP2 SWAP1 POP JUMP JUMPDEST PUSH1 0x0 DUP3 DUP3 MSTORE PUSH1 0x20 DUP3 ADD SWAP1 POP SWAP3 SWAP2 POP POP JUMP JUMPDEST PUSH1 0x0 JUMPDEST DUP4 DUP2 LT ISZERO PUSH2 0x109D JUMPI DUP1 DUP3 ADD MLOAD DUP2 DUP5 ADD MSTORE PUSH1 0x20 DUP2 ADD SWAP1 POP PUSH2 0x1082 JUMP JUMPDEST PUSH1 0x0 DUP5 DUP5 ADD MSTORE POP POP POP POP JUMP JUMPDEST PUSH1 0x0 PUSH2 0x10B4 DUP3 PUSH2 0x1063 JUMP JUMPDEST PUSH2 0x10BE DUP2 DUP6 PUSH2 0x106E JUMP JUMPDEST SWAP4 POP PUSH2 0x10CE DUP2 DUP6 PUSH1 0x20 DUP7 ADD PUSH2 0x107F JUMP JUMPDEST PUSH2 0x10D7 DUP2 PUSH2 0xD9D JUMP JUMPDEST DUP5 ADD SWAP2 POP POP SWAP3 SWAP2 POP POP JUMP JUMPDEST PUSH1 0x0 PUSH2 0x120 DUP3 ADD SWAP1 POP PUSH2 0x10F8 PUSH1 0x0 DUP4 ADD DUP13 PUSH2 0x1045 JUMP JUMPDEST PUSH2 0x1105 PUSH1 0x20 DUP4 ADD DUP12 PUSH2 0x1054 JUMP JUMPDEST DUP2 DUP2 SUB PUSH1 0x40 DUP4 ADD MSTORE PUSH2 0x1117 DUP2 DUP11 PUSH2 0x10A9 JUMP JUMPDEST SWAP1 POP PUSH2 0x1126 PUSH1 0x60 DUP4 ADD DUP10 PUSH2 0x1045 JUMP JUMPDEST PUSH2 0x1133 PUSH1 0x80 DUP4 ADD DUP9 PUSH2 0x1045 JUMP JUMPDEST PUSH2 0x1140 PUSH1 0xA0 DUP4 ADD DUP8 PUSH2 0x1045 JUMP JUMPDEST PUSH2 0x114D PUSH1 0xC0 DUP4 ADD DUP7 PUSH2 0x1045 JUMP JUMPDEST PUSH2 0x115A PUSH1 0xE0 DUP4 ADD DUP6 PUSH2 0x1054 JUMP JUMPDEST PUSH2 0x1168 PUSH2 0x100 DUP4 ADD DUP5 PUSH2 0x1054 JUMP JUMPDEST SWAP11 SWAP10 POP POP POP POP POP POP POP POP POP POP JUMP JUMPDEST PUSH1 0x0 PUSH1 0x20 DUP3 ADD SWAP1 POP PUSH2 0x118B PUSH1 0x0 DUP4 ADD DUP5 PUSH2 0x1045 JUMP JUMPDEST SWAP3 SWAP2 POP POP JUMP JUMPDEST PUSH32 0x546869732050726F706F73616C20646F6573206E6F7420657869737400000000 PUSH1 0x0 DUP3 ADD MSTORE POP JUMP JUMPDEST PUSH1 0x0 PUSH2 0x11C7 PUSH1 0x1C DUP4 PUSH2 0x106E JUMP JUMPDEST SWAP2 POP PUSH2 0x11D2 DUP3 PUSH2 0x1191 JUMP JUMPDEST PUSH1 0x20 DUP3 ADD SWAP1 POP SWAP2 SWAP1 POP JUMP JUMPDEST PUSH1 0x0 PUSH1 0x20 DUP3 ADD SWAP1 POP DUP2 DUP2 SUB PUSH1 0x0 DUP4 ADD MSTORE PUSH2 0x11F6 DUP2 PUSH2 0x11BA JUMP JUMPDEST SWAP1 POP SWAP2 SWAP1 POP JUMP JUMPDEST PUSH32 0x596F752063616E206E6F7420766F7465206F6E20746869732050726F706F7361 PUSH1 0x0 DUP3 ADD MSTORE PUSH32 0x6C00000000000000000000000000000000000000000000000000000000000000 PUSH1 0x20 DUP3 ADD MSTORE POP JUMP JUMPDEST PUSH1 0x0 PUSH2 0x1259 PUSH1 0x21 DUP4 PUSH2 0x106E JUMP JUMPDEST SWAP2 POP PUSH2 0x1264 DUP3 PUSH2 0x11FD JUMP JUMPDEST PUSH1 0x40 DUP3 ADD SWAP1 POP SWAP2 SWAP1 POP JUMP JUMPDEST PUSH1 0x0 PUSH1 0x20 DUP3 ADD SWAP1 POP DUP2 DUP2 SUB PUSH1 0x0 DUP4 ADD MSTORE PUSH2 0x1288 DUP2 PUSH2 0x124C JUMP JUMPDEST SWAP1 POP SWAP2 SWAP1 POP JUMP JUMPDEST PUSH32 0x596F75206861766520616C726561647920766F746564206F6E20746869732050 PUSH1 0x0 DUP3 ADD MSTORE PUSH32 0x726F706F73616C00000000000000000000000000000000000000000000000000 PUSH1 0x20 DUP3 ADD MSTORE POP JUMP JUMPDEST PUSH1 0x0 PUSH2 0x12EB PUSH1 0x27 DUP4 PUSH2 0x106E JUMP JUMPDEST SWAP2 POP PUSH2 0x12F6 DUP3 PUSH2 0x128F JUMP JUMPDEST PUSH1 0x40 DUP3 ADD SWAP1 POP SWAP2 SWAP1 POP JUMP JUMPDEST PUSH1 0x0 PUSH1 0x20 DUP3 ADD SWAP1 POP DUP2 DUP2 SUB PUSH1 0x0 DUP4 ADD MSTORE PUSH2 0x131A DUP2 PUSH2 0x12DE JUMP JUMPDEST SWAP1 POP SWAP2 SWAP1 POP JUMP JUMPDEST PUSH32 0x54686520646561646C696E65206861732070617373656420666F722074686973 PUSH1 0x0 DUP3 ADD MSTORE PUSH32 0x2050726F706F73616C0000000000000000000000000000000000000000000000 PUSH1 0x20 DUP3 ADD MSTORE POP JUMP JUMPDEST PUSH1 0x0 PUSH2 0x137D PUSH1 0x29 DUP4 PUSH2 0x106E JUMP JUMPDEST SWAP2 POP PUSH2 0x1388 DUP3 PUSH2 0x1321 JUMP JUMPDEST PUSH1 0x40 DUP3 ADD SWAP1 POP SWAP2 SWAP1 POP JUMP JUMPDEST PUSH1 0x0 PUSH1 0x20 DUP3 ADD SWAP1 POP DUP2 DUP2 SUB PUSH1 0x0 DUP4 ADD MSTORE PUSH2 0x13AC DUP2 PUSH2 0x1370 JUMP JUMPDEST SWAP1 POP SWAP2 SWAP1 POP JUMP JUMPDEST PUSH32 0x4E487B7100000000000000000000000000000000000000000000000000000000 PUSH1 0x0 MSTORE PUSH1 0x11 PUSH1 0x4 MSTORE PUSH1 0x24 PUSH1 0x0 REVERT JUMPDEST PUSH1 0x0 PUSH2 0x13ED DUP3 PUSH2 0xC5C JUMP JUMPDEST SWAP2 POP PUSH32 0xFFFFFFFFFFFFFFFFFFFFFFFFFFFFFFFFFFFFFFFFFFFFFFFFFFFFFFFFFFFFFFFF DUP3 SUB PUSH2 0x141F JUMPI PUSH2 0x141E PUSH2 0x13B3 JUMP JUMPDEST JUMPDEST PUSH1 0x1 DUP3 ADD SWAP1 POP SWAP2 SWAP1 POP JUMP JUMPDEST PUSH1 0x0 PUSH1 0xA0 DUP3 ADD SWAP1 POP PUSH2 0x143F PUSH1 0x0 DUP4 ADD DUP9 PUSH2 0x1045 JUMP JUMPDEST PUSH2 0x144C PUSH1 0x20 DUP4 ADD DUP8 PUSH2 0x1045 JUMP JUMPDEST PUSH2 0x1459 PUSH1 0x40 DUP4 ADD DUP7 PUSH2 0xD69 JUMP JUMPDEST PUSH2 0x1466 PUSH1 0x60 DUP4 ADD DUP6 PUSH2 0x1045 JUMP JUMPDEST PUSH2 0x1473 PUSH1 0x80 DUP4 ADD DUP5 PUSH2 0x1054 JUMP JUMPDEST SWAP7 SWAP6 POP POP POP POP POP POP JUMP JUMPDEST PUSH32 0x4F6E6C79204F776E65722043616E20436F756E7420566F746573000000000000 PUSH1 0x0 DUP3 ADD MSTORE POP JUMP JUMPDEST PUSH1 0x0 PUSH2 0x14B3 PUSH1 0x1A DUP4 PUSH2 0x106E JUMP JUMPDEST SWAP2 POP PUSH2 0x14BE DUP3 PUSH2 0x147D JUMP JUMPDEST PUSH1 0x20 DUP3 ADD SWAP1 POP SWAP2 SWAP1 POP JUMP JUMPDEST PUSH1 0x0 PUSH1 0x20 DUP3 ADD SWAP1 POP DUP2 DUP2 SUB PUSH1 0x0 DUP4 ADD MSTORE PUSH2 0x14E2 DUP2 PUSH2 0x14A6 JUMP JUMPDEST SWAP1 POP SWAP2 SWAP1 POP JUMP JUMPDEST PUSH32 0x566F74696E6720686173206E6F7420636F6E636C756465640000000000000000 PUSH1 0x0 DUP3 ADD MSTORE POP JUMP JUMPDEST PUSH1 0x0 PUSH2 0x151F PUSH1 0x18 DUP4 PUSH2 0x106E JUMP JUMPDEST SWAP2 POP PUSH2 0x152A DUP3 PUSH2 0x14E9 JUMP JUMPDEST PUSH1 0x20 DUP3 ADD SWAP1 POP SWAP2 SWAP1 POP JUMP JUMPDEST PUSH1 0x0 PUSH1 0x20 DUP3 ADD SWAP1 POP DUP2 DUP2 SUB PUSH1 0x0 DUP4 ADD MSTORE PUSH2 0x154E DUP2 PUSH2 0x1512 JUMP JUMPDEST SWAP1 POP SWAP2 SWAP1 POP JUMP JUMPDEST PUSH32 0x436F756E7420616C726561647920636F6E647563746564000000000000000000 PUSH1 0x0 DUP3 ADD MSTORE POP JUMP JUMPDEST PUSH1 0x0 PUSH2 0x158B PUSH1 0x17 DUP4 PUSH2 0x106E JUMP JUMPDEST SWAP2 POP PUSH2 0x1596 DUP3 PUSH2 0x1555 JUMP JUMPDEST PUSH1 0x20 DUP3 ADD SWAP1 POP SWAP2 SWAP1 POP JUMP JUMPDEST PUSH1 0x0 PUSH1 0x20 DUP3 ADD SWAP1 POP DUP2 DUP2 SUB PUSH1 0x0 DUP4 ADD MSTORE PUSH2 0x15BA DUP2 PUSH2 0x157E JUMP JUMPDEST SWAP1 POP SWAP2 SWAP1 POP JUMP JUMPDEST PUSH1 0x0 PUSH1 0x40 DUP3 ADD SWAP1 POP PUSH2 0x15D6 PUSH1 0x0 DUP4 ADD DUP6 PUSH2 0x1045 JUMP JUMPDEST PUSH2 0x15E3 PUSH1 0x20 DUP4 ADD DUP5 PUSH2 0x1054 JUMP JUMPDEST SWAP4 SWAP3 POP POP POP JUMP JUMPDEST PUSH32 0x4F6E6C79204E465420686F6C646572732063616E2070757420666F7274682050 PUSH1 0x0 DUP3 ADD MSTORE PUSH32 0x726F706F73616C73000000000000000000000000000000000000000000000000 PUSH1 0x20 DUP3 ADD MSTORE POP JUMP JUMPDEST PUSH1 0x0 PUSH2 0x1646 PUSH1 0x28 DUP4 PUSH2 0x106E JUMP JUMPDEST SWAP2 POP PUSH2 0x1651 DUP3 PUSH2 0x15EA JUMP JUMPDEST PUSH1 0x40 DUP3 ADD SWAP1 POP SWAP2 SWAP1 POP JUMP JUMPDEST PUSH1 0x0 PUSH1 0x20 DUP3 ADD SWAP1 POP DUP2 DUP2 SUB PUSH1 0x0 DUP4 ADD MSTORE PUSH2 0x1675 DUP2 PUSH2 0x1639 JUMP JUMPDEST SWAP1 POP SWAP2 SWAP1 POP JUMP JUMPDEST PUSH32 0x4E487B7100000000000000000000000000000000000000000000000000000000 PUSH1 0x0 MSTORE PUSH1 0x22 PUSH1 0x4 MSTORE PUSH1 0x24 PUSH1 0x0 REVERT JUMPDEST PUSH1 0x0 PUSH1 0x2 DUP3 DIV SWAP1 POP PUSH1 0x1 DUP3 AND DUP1 PUSH2 0x16C3 JUMPI PUSH1 0x7F DUP3 AND SWAP2 POP JUMPDEST PUSH1 0x20 DUP3 LT DUP2 SUB PUSH2 0x16D6 JUMPI PUSH2 0x16D5 PUSH2 0x167C JUMP JUMPDEST JUMPDEST POP SWAP2 SWAP1 POP JUMP JUMPDEST PUSH1 0x0 DUP2 SWAP1 POP DUP2 PUSH1 0x0 MSTORE PUSH1 0x20 PUSH1 0x0 KECCAK256 SWAP1 POP SWAP2 SWAP1 POP JUMP JUMPDEST PUSH1 0x0 PUSH1 0x20 PUSH1 0x1F DUP4 ADD DIV SWAP1 POP SWAP2 SWAP1 POP JUMP JUMPDEST PUSH1 0x0 DUP3 DUP3 SHL SWAP1 POP SWAP3 SWAP2 POP POP JUMP JUMPDEST PUSH1 0x0 PUSH1 0x8 DUP4 MUL PUSH2 0x173E PUSH32 0xFFFFFFFFFFFFFFFFFFFFFFFFFFFFFFFFFFFFFFFFFFFFFFFFFFFFFFFFFFFFFFFF DUP3 PUSH2 0x1701 JUMP JUMPDEST PUSH2 0x1748 DUP7 DUP4 PUSH2 0x1701 JUMP JUMPDEST SWAP6 POP DUP1 NOT DUP5 AND SWAP4 POP DUP1 DUP7 AND DUP5 OR SWAP3 POP POP POP SWAP4 SWAP3 POP POP POP JUMP JUMPDEST PUSH1 0x0 DUP2 SWAP1 POP SWAP2 SWAP1 POP JUMP JUMPDEST PUSH1 0x0 PUSH2 0x1785 PUSH2 0x1780 PUSH2 0x177B DUP5 PUSH2 0xC5C JUMP JUMPDEST PUSH2 0x1760 JUMP JUMPDEST PUSH2 0xC5C JUMP JUMPDEST SWAP1 POP SWAP2 SWAP1 POP JUMP JUMPDEST PUSH1 0x0 DUP2 SWAP1 POP SWAP2 SWAP1 POP JUMP JUMPDEST PUSH2 0x179F DUP4 PUSH2 0x176A JUMP JUMPDEST PUSH2 0x17B3 PUSH2 0x17AB DUP3 PUSH2 0x178C JUMP JUMPDEST DUP5 DUP5 SLOAD PUSH2 0x170E JUMP JUMPDEST DUP3 SSTORE POP POP POP POP JUMP JUMPDEST PUSH1 0x0 SWAP1 JUMP JUMPDEST PUSH2 0x17C8 PUSH2 0x17BB JUMP JUMPDEST PUSH2 0x17D3 DUP2 DUP5 DUP5 PUSH2 0x1796 JUMP JUMPDEST POP POP POP JUMP JUMPDEST JUMPDEST DUP2 DUP2 LT ISZERO PUSH2 0x17F7 JUMPI PUSH2 0x17EC PUSH1 0x0 DUP3 PUSH2 0x17C0 JUMP JUMPDEST PUSH1 0x1 DUP2 ADD SWAP1 POP PUSH2 0x17D9 JUMP JUMPDEST POP POP JUMP JUMPDEST PUSH1 0x1F DUP3 GT ISZERO PUSH2 0x183C JUMPI PUSH2 0x180D DUP2 PUSH2 0x16DC JUMP JUMPDEST PUSH2 0x1816 DUP5 PUSH2 0x16F1 JUMP JUMPDEST DUP2 ADD PUSH1 0x20 DUP6 LT ISZERO PUSH2 0x1825 JUMPI DUP2 SWAP1 POP JUMPDEST PUSH2 0x1839 PUSH2 0x1831 DUP6 PUSH2 0x16F1 JUMP JUMPDEST DUP4 ADD DUP3 PUSH2 0x17D8 JUMP JUMPDEST POP POP JUMPDEST POP POP POP JUMP JUMPDEST PUSH1 0x0 DUP3 DUP3 SHR SWAP1 POP SWAP3 SWAP2 POP POP JUMP JUMPDEST PUSH1 0x0 PUSH2 0x185F PUSH1 0x0 NOT DUP5 PUSH1 0x8 MUL PUSH2 0x1841 JUMP JUMPDEST NOT DUP1 DUP4 AND SWAP2 POP POP SWAP3 SWAP2 POP POP JUMP JUMPDEST PUSH1 0x0 PUSH2 0x1878 DUP4 DUP4 PUSH2 0x184E JUMP JUMPDEST SWAP2 POP DUP3 PUSH1 0x2 MUL DUP3 OR SWAP1 POP SWAP3 SWAP2 POP POP JUMP JUMPDEST PUSH2 0x1891 DUP3 PUSH2 0x1063 JUMP JUMPDEST PUSH8 0xFFFFFFFFFFFFFFFF DUP2 GT ISZERO PUSH2 0x18AA JUMPI PUSH2 0x18A9 PUSH2 0xDAE JUMP JUMPDEST JUMPDEST PUSH2 0x18B4 DUP3 SLOAD PUSH2 0x16AB JUMP JUMPDEST PUSH2 0x18BF DUP3 DUP3 DUP6 PUSH2 0x17FB JUMP JUMPDEST PUSH1 0x0 PUSH1 0x20 SWAP1 POP PUSH1 0x1F DUP4 GT PUSH1 0x1 DUP2 EQ PUSH2 0x18F2 JUMPI PUSH1 0x0 DUP5 ISZERO PUSH2 0x18E0 JUMPI DUP3 DUP8 ADD MLOAD SWAP1 POP JUMPDEST PUSH2 0x18EA DUP6 DUP3 PUSH2 0x186C JUMP JUMPDEST DUP7 SSTORE POP PUSH2 0x1952 JUMP JUMPDEST PUSH1 0x1F NOT DUP5 AND PUSH2 0x1900 DUP7 PUSH2 0x16DC JUMP JUMPDEST PUSH1 0x0 JUMPDEST DUP3 DUP2 LT ISZERO PUSH2 0x1928 JUMPI DUP5 DUP10 ADD MLOAD DUP3 SSTORE PUSH1 0x1 DUP3 ADD SWAP2 POP PUSH1 0x20 DUP6 ADD SWAP5 POP PUSH1 0x20 DUP2 ADD SWAP1 POP PUSH2 0x1903 JUMP JUMPDEST DUP7 DUP4 LT ISZERO PUSH2 0x1945 JUMPI DUP5 DUP10 ADD MLOAD PUSH2 0x1941 PUSH1 0x1F DUP10 AND DUP3 PUSH2 0x184E JUMP JUMPDEST DUP4 SSTORE POP JUMPDEST PUSH1 0x1 PUSH1 0x2 DUP9 MUL ADD DUP9 SSTORE POP POP POP JUMPDEST POP POP POP POP POP POP JUMP JUMPDEST PUSH1 0x0 PUSH2 0x1965 DUP3 PUSH2 0xC5C JUMP JUMPDEST SWAP2 POP PUSH2 0x1970 DUP4 PUSH2 0xC5C JUMP JUMPDEST SWAP3 POP DUP3 DUP3 ADD SWAP1 POP DUP1 DUP3 GT ISZERO PUSH2 0x1988 JUMPI PUSH2 0x1987 PUSH2 0x13B3 JUMP JUMPDEST JUMPDEST SWAP3 SWAP2 POP POP JUMP JUMPDEST PUSH1 0x0 PUSH1 0x80 DUP3 ADD SWAP1 POP PUSH2 0x19A3 PUSH1 0x0 DUP4 ADD DUP8 PUSH2 0x1045 JUMP JUMPDEST DUP2 DUP2 SUB PUSH1 0x20 DUP4 ADD MSTORE PUSH2 0x19B5 DUP2 DUP7 PUSH2 0x10A9 JUMP JUMPDEST SWAP1 POP PUSH2 0x19C4 PUSH1 0x40 DUP4 ADD DUP6 PUSH2 0x1045 JUMP JUMPDEST PUSH2 0x19D1 PUSH1 0x60 DUP4 ADD DUP5 PUSH2 0xD69 JUMP JUMPDEST SWAP6 SWAP5 POP POP POP POP POP JUMP JUMPDEST PUSH32 0x4F6E6C79204F776E65722043616E2041646420546F6B656E7300000000000000 PUSH1 0x0 DUP3 ADD MSTORE POP JUMP JUMPDEST PUSH1 0x0 PUSH2 0x1A10 PUSH1 0x19 DUP4 PUSH2 0x106E JUMP JUMPDEST SWAP2 POP PUSH2 0x1A1B DUP3 PUSH2 0x19DA JUMP JUMPDEST PUSH1 0x20 DUP3 ADD SWAP1 POP SWAP2 SWAP1 POP JUMP JUMPDEST PUSH1 0x0 PUSH1 0x20 DUP3 ADD SWAP1 POP DUP2 DUP2 SUB PUSH1 0x0 DUP4 ADD MSTORE PUSH2 0x1A3F DUP2 PUSH2 0x1A03 JUMP JUMPDEST SWAP1 POP SWAP2 SWAP1 POP JUMP JUMPDEST PUSH32 0x4E487B7100000000000000000000000000000000000000000000000000000000 PUSH1 0x0 MSTORE PUSH1 0x32 PUSH1 0x4 MSTORE PUSH1 0x24 PUSH1 0x0 REVERT JUMPDEST PUSH1 0x0 PUSH1 0x40 DUP3 ADD SWAP1 POP PUSH2 0x1A8A PUSH1 0x0 DUP4 ADD DUP6 PUSH2 0xD69 JUMP JUMPDEST PUSH2 0x1A97 PUSH1 0x20 DUP4 ADD DUP5 PUSH2 0x1045 JUMP JUMPDEST SWAP4 SWAP3 POP POP POP JUMP JUMPDEST PUSH1 0x0 DUP2 MLOAD SWAP1 POP PUSH2 0x1AAD DUP2 PUSH2 0xC66 JUMP JUMPDEST SWAP3 SWAP2 POP POP JUMP JUMPDEST PUSH1 0x0 PUSH1 0x20 DUP3 DUP5 SUB SLT ISZERO PUSH2 0x1AC9 JUMPI PUSH2 0x1AC8 PUSH2 0xC52 JUMP JUMPDEST JUMPDEST PUSH1 0x0 PUSH2 0x1AD7 DUP5 DUP3 DUP6 ADD PUSH2 0x1A9E JUMP JUMPDEST SWAP2 POP POP SWAP3 SWAP2 POP POP JUMP INVALID LOG2 PUSH5 0x6970667358 0x22 SLT KECCAK256 0xB0 MLOAD 0x28 0xB4 0xAF 0xD1 0xDF MSTORE SELFBALANCE 0xD8 0xE5 0xA6 PC 0xCD 0xC5 PUSH17 0x2F39600CDC4D73B56C377E968F5DFF0364 PUSH20 0x6F6C634300081100330000000000000000000000 "},"methodIdentifiers":{"Proposals(uint256)":"d1dbe7d8","addTokenId(uint256)":"fd0d101f","countVotes(uint256)":"1840f0ca","createProposal(string,address[])":"be8bb7ba","owner()":"8da5cb5b","validTokens(uint256)":"e9d3d16a","voteOnProposal(uint256,bool)":"1614665c"}}}}}